:020000040000FA
:10000000FC2C0020C10E0000F10E0000DB0C0000F3
:10001000EF0E0000EF0E0000EF0E000000000000E9
:10002000000000000000000000000000EF0E0000D3
:10003000EF0E000000000000EF0E0000EF0E0000C9
:10004000EF0E0000EF0E0000EF0E0000EF0E0000BC
:10005000EF0E0000EF0E0000EF0E0000EF0E0000AC
:10006000EF0E0000EF0E0000EF0E0000EF0E00009C
:10007000EF0E0000EF0E0000EF0E0000EF0E00008C
:10008000EF0E0000EF0E0000EF0E0000EF0E00007C
:10009000EF0E0000EF0E0000EF0E0000EF0E00006C
:1000A000EF0E0000EF0E0000EF0E0000EF0E00005C
:1000B000EF0E0000EF0E0000EF0E0000EF0E00004C
:1000C000EF0E0000EF0E000010B5ADF1180D03911A
:1000D00002902E48006840690146062088472B4858
:1000E0000068406B0146062088470128F7D1274861
:1000F0000068C06901464FF4A060884700F004F929
:1001000000F0C6F80028FBD020480068C06901460E
:100110004FF48070884700F0F7F800F0B9F8002835
:10012000FBD04FF080400F2100F0CEF84FF0804020
:10013000032100F0E0F816480068029A0068009277
:10014000082101911349002304464FF0804000220A
:10015000A047114800680399406C13224FF0FF3309
:10016000044600914FF080401221A0474FF080409C
:1001700000F0B6F806480068006904A902464FF08E
:10018000804090470028F5D106B010BDB80100109E
:10019000C4010010006CDC02B401001008B5144862
:1001A0000068006A01464FF48070884700F0ACF8A0
:1001B00000F06EF80028FBD00D480068006A014688
:1001C0004FF4A060884700F09FF800F061F8002825
:1001D000FBD007480068806901460620884704482C
:1001E0000068406B0146062088470228F7D108BD09
:1001F000B80100100EB501910090019800B31148AC
:1002000000688068002102464FF08040904710B996
:100210004FF0FF3015E00B480068C06802A90246A5
:100220004FF0804090479DF80800009908700198B1
:10023000401E01900098401C009001980028DED1DB
:1002400000200EBDC40100100EB501910090019870
:10025000C8B10E48009900680978406802464FF01E
:100260008040904709480068C06802A902464FF0E4
:10027000804090470198401E01900098401C0090DB
:1002800001980028E5D100200EBDC046C401001031
:10029000054801680020890801D3012100E0002100
:1002A00001B101207047C0462820084008B5054824
:1002B00000680069694602464FF080409047002878
:1002C000F5D108BDC4010010ADF1080D01910090F9
:1002D0000098019A143001689143016002B07047A0
:1002E000ADF1080D00900098001D016841F0020179
:1002F000016002B07047ADF1080D019100900198C6
:100300000099086202B070470149012008607047F7
:10031000282008602DE9F041424C464D8046C8F344
:100320008140401E02D0401E2AD025E028462030C1
:100330000168880C20D24FF4804020603A48D0F801
:1003400002204B0AC1F3033703F0800322F08F022F
:10035000134347EA0302C0F80220D0F801300E121E
:1003600066F30303C0F80130026801F0E70722F0EA
:10037000E70247EA020102E04FF000412046016037
:100380002F4E301D0068C0F3C0070FB94020A06297
:100390004FF40070206400F0F9FB40F0300084F866
:1003A000C800C8F3815040B3401E03D0401E1FD088
:1003B00002211EE0012000F06DFB074604203946B3
:1003C00000F06AFA042000F065FB8742FAD1361F7C
:1003D000366826F07F4000F0EDFA144800680368A4
:1003E00007214FF06022300E98474FF48060206064
:1003F0000321042000F050FA06E00420012100F05F
:100400004BFA0B4800F0D6FA284600680A4947F62E
:10041000180700F03F0084F8CB0F084E0F803068BB
:10042000BDE8F08140A00C400A600840B401001013
:10043000BD3786006C13005070B00C402C20094072
:10044000AC3F00507CB50446084600F0C9F9344E74
:1004500002461821304600F0C5FA00F037FB40F2A2
:10046000FF32002380B22C210090304600F05EFA6B
:1004700000F094FB1C210246304600F0B3FA00F075
:1004800017FB02461421304600F0ACFA00F044FBA2
:1004900002461021304600F0A5FA204600F06AF925
:1004A00002460C21304600F09DFA204600F01CFB6D
:1004B0001C4D400040F020002870204600F020FB3A
:1004C00040F010002870204600F0B8FA02462821BB
:1004D000304600F087FA204600F02AFB400040F04A
:1004E0006000E870204600F02FFBC00040F0800064
:1004F00005F8080C204600F033FB800040F47C40F7
:10050000A5F89300204600F083FA02460821304601
:1005100000F068FA4FF48000A5F2091108607CBD74
:1005200000A00C4049A10C40264A2DE9F04180462C
:100530000126254816600768002FFCD0234DC020F7
:1005400028602448011D0968890804D20168090C43
:1005500041F0F00100E072211D4C84F8541200219A
:1005600011638768384600F091F840463946FFF736
:1005700069FF1948816D40F20F226FF31F418A42D3
:1005800012D901680068C1F30363C0F3034003B1EB
:100590005B1E072805D006280EBF0720801C00F030
:1005A0000F0043EA001020703846FFF7B3FE0B48F7
:1005B0000068C1680220884740202860084F3E60DC
:1005C000BDE8F081101009409402224300600C4005
:1005D00002600840AC3F0050BC120050A001001067
:1005E00094046042264838B560300468B4F1FF3F97
:1005F00008BF002400F0C0FA2248234B0025012147
:100600001038056003F15C0001601448016000F0DF
:100610001BF91348006820B1124800682046FFF714
:1006200083FF114811490560114C0A686FF35B4262
:1006300044EA020008600F490868C0F3013001284D
:1006400006D10A680C48104040F400320A60086085
:100650000A4908680028FCD138BDC0460822044376
:1006600080012843000120438C210840482003409A
:100670000000390104000940FFFFFCFC0C00684247
:10068000BC1200509404604200600C401849096894
:10069000C1F304611629A8BF203901EB2071491C60
:1006A000162905DA11F10A0FB8BF6FF0090100E051
:1006B0001521104A104B01F01F0141F4F85111802F
:1006C0001968890803D20D4A0021116001E040F049
:1006D00040600B4AC10E800E81F0010180F00100E4
:1006E00001F00101116000F0010090607047C04608
:1006F000B81200506E6208400000094094042A437A
:10070000000020431A4898B5D0F8781203680F0FFC
:1007100003F0FF03802B28BF002300F0E3F84FF025
:10072000FF3478B1401E07D0401E012802D9801E38
:1007300019D01AE0BFB118E0381C12D0801E14D1B5
:10074000143311E03846401E0BD0801E07D0001F26
:1007500003D0401E09D1163306E0152405E0142409
:1007600003E00A2401E00A335CB2204698BDC0468B
:10077000A010005038B504461848174D14380268C8
:100780006B68C2F30351C2F303405B0813D22B68BA
:100790001D0511EB257103D41029A8BF0F2100E01E
:1007A00000211B0410EB237303D4102BA8BF0F23CD
:1007B00000E00023184640EA011002F47F4102F0F5
:1007C000FF03222C41EA004143EA010024BF02F06A
:1007D0008042104338BDC046AC3F00508C130050DF
:1007E0000146184880B53C3800688A0CC0F383671E
:1007F000C0F38F2022D241F3072100290BD54A42B2
:100800000021400805D17F0806BF0127381C4FF69C
:10081000FF70521EF5D1002910DD4FF6FF72400027
:1008200040F00100824207D2780040F001070F2F0C
:1008300092BF01200F27101C491EF0D140EA07404B
:1008400080BDC0468C1300500F4908680028FCD1B9
:10085000104A131D0D49186820F0030001430C488D
:100860000068C0080CD2106810F0030F0AD041F0E5
:1008700003001860106800F003000328FAD101E0BB
:1008800041F00101196070470C006842040000202B
:10089000B03F0050004003407CB5114D04460E4669
:1008A000600807D3B0B20021009001220B46284611
:1008B00000F03CF8A00807D3B0B20090002102225B
:1008C0000123284600F032F8E00807D3B0B20090C8
:1008D00000210C220223284600F028F87CBDC046E7
:1008E00000A00C40104A1068C0F30F314BF69A106C
:1008F000884207D111680B20B0EB117F14BF002094
:10090000042070472430884208BF01200BD04BF6EA
:100910004130884208BF032005D0213888420CBFEF
:1009200002204FF0FF30704718130050B0B500EBB5
:100930004100102B04AF00F5007403D3103B00F509
:100940000174120C3D889D4045EA024500F02EF9E5
:10095000002700B90127064A394610680028FCD054
:1009600025600120106009B100F026F9B0BDC04635
:1009700000800C40F8B51E4614460D18102E02D308
:10098000103EAD1C240C00F011F9002700B901271E
:1009900007483B460768002FFCD02D8801210160E5
:1009A0000BB100F009F92C403441A0B2F8BDC046AB
:1009B00000800C400949020480B5120C41F8082C53
:1009C000C0F3074041F8040C0120086004480768A0
:1009D000002FFCD00020086080BDC04644600C4061
:1009E00084088C43B0B515460C1800F0DFF80027DA
:1009F00000B90127054A394610680028FCD0256057
:100A00000120106009B100F0D7F8B0BD00800C40A3
:100A1000202838BF07480CD307480C30016808036A
:100A20008215920500F47C1001F00F01104340EA9A
:100A30000130704700803F408C130050202838BFA1
:100A4000002008D304480C300068C10C01F4407148
:100A5000C0F38450084370478C13005008B5044B12
:100A60001B689B699847034A0021116008BDC04676
:100A7000A801001084046042044908B50968496966
:100A80008847034A0021116008BDC046A801001034
:100A900084046042042807BF4FF0C0421D234FF07A
:100AA00080521C2301483421FFF764BF00A00C4092
:100AB0000548183801680348084001F07C410843A4
:100AC0007047C046FCFCFC008C13005005493C39C3
:100AD00008680968C0F3870001F0030140EA0120BB
:100AE0007047C0468C130050222804D30348006886
:100AF000C0F30070704701207047C0468C1300504F
:100B0000222804D303480068C0F3407070470120D6
:100B10007047C0468C13005004481C38006800F42D
:100B20007C010004000C08437047C0468C13005041
:100B3000202805D303480C300068C0F301507047EB
:100B4000002070478C130050222804D3034800680B
:100B5000C0F3C060704700207047C0468C1300503F
:100B6000222804D303480068C0F345507047002092
:100B70007047C0468C13005008B5FFF7B3FE18B994
:100B8000FFF7C0FD162800DAFEE708BD024800683E
:100B9000C0F3C1407047C0468C1300500248103863
:100BA0000068C0F30D0070478C130050EFF3108005
:100BB00072B6704700207047EFF3108062B670473E
:100BC00000207047002A4AD05FEA000C8B071CD136
:100BD000830722D1102A08D370B4103A78C978C09C
:100BE000103AFBD270BC103238D0042A2CD3082A19
:100BF00005D30C2A24BF08C908C008C908C008C901
:100C000008C092072AD0920F22E00B780370491C8B
:100C1000401C521E22D08B07F7D1C30714D1830783
:100C2000D8D0121F12D308C903801B0C4380001DAB
:100C3000121FF8D20AE008C903701B0A43701B0A8E
:100C400083701B0AC370001D121FF4D2121D05D041
:100C50000B780370491C401C521EF9D16046704746
:100C6000002213460A46194671B510F0030F0BD047
:100C7000002A82BF00F8011BB2F1010210F0030F3D
:100C8000F6D1002A08BF71BD11F0FF0141EA012130
:100C9000042A18D341EA0141082A0FD30E46102A2C
:100CA00008D30C460D46B2F10F0312F00F0272C0CA
:100CB000103BFCD812F0080F18BF42C012F0040F0E
:100CC00018BF40F8041B12F0020F18BF20F8021BD7
:100CD00012F0010F18BF017071BDFEE71448B0B5E6
:100CE000B0F1FF3F01D000F08FF8124D1248A8423A
:100CF00010D01248124CA0420CD0001BC71054F860
:100D0000040B10F8011B55F8212054F8041B9047E0
:100D10007F1EF4D100F0EEF80A4D0B4CA54205D031
:100D200002E054F8040B8047A542FAD1B0BDC0469A
:100D3000FFFFFFFF3C0F0000480F0000600F0000A6
:100D4000500F00000000000000000000F8B58446CD
:100D500040F6FF741CF8013B002210E0481B401EC7
:100D600010F8015B7F1E01F8015BF9D103E01CF86C
:100D7000010B01F8010B521C5B08082AEADA58083B
:100D8000F5D21CF8010B1CF8015B05F00F07FF1CE6
:100D9000C5F30315122F45EA001508D11CF8016BA5
:100DA000300A24BF1CF8010B60F3DF16F719AC42C0
:100DB000D4D1F8BD00BF704708B5FFF7FBFFFEE7D1
:100DC00038B50D4C0546A06820B10C48B0F1FF3F86
:100DD00000D080470A4800688047606810B101462B
:100DE00028468847206800B1804706480068804749
:100DF000FFF7E2FF38BDC04614100020FFFFFFFFE1
:100E00002010002024100020F8B506460F4D104F8A
:100E10007388002417E0A00000EBC400321851686A
:100E20009068D26852B9AF420BD00A7855F82220A8
:100E30000346491C08461946904701E0FFF7C2FEE9
:100E40007388641CA4B2A342E5DCF8BD3C0F00002B
:100E5000480F00000C4885460C4885446F46072023
:100E60008743BD460A486F46076000F042F800F02D
:100E70003CF8002801D0FFF731FF00F00BF801200B
:100E8000FFF79EFFFEE7C046FC2B0020000100009C
:100E90002C1000200449B1F1FF3F07BF0020011CC6
:100EA0000868091D1EF0DCBAFFFFFFFF0349086058
:100EB00070470249091F08607047704724100020DE
:100EC00008B5FFF78FFBFFF7C5BFFFF706FF08BDAB
:100ED000D0F80320C31D08461946FFF773BED0F8AB
:100EE000032008460021FFF7BFBE01207047FEE740
:060EF000FEE770477047A9
:100EF80000002000C215000000001000C21400000D
:100F080000000800EF12000000000400EF110000CC
:0E0F1800000000000000000090FFFF00050632
:100F28000035000004010080BB0E0033013500FFCE
:100F3800F00000004D0D0000D10E0000DF0E000093
:100F48000200000014100000280F000014100020F8
:080F5800480F0000000000201A
:10100000FFFFFFFFFFFFFFFFFFFFFFFFFFFFFFFFF0
:10101000F841002081AC0000FDCE0000FDCE0000B4
:10102000FDCE0000FDCE0000FDCE0000FDCE000094
:10103000FDCE0000FDCE0000FDCE0000FDCE000084
:10104000FDCE0000FDCE000097D300002DE9F04F4B
:10105000ADF5AA7D07F0D8F8B04D05F1280005F1EF
:101060006C0106F077FDDFF8B882E86041460CF0CD
:1010700000FF0820ADF830000120ADF832000CA8C8
:101080000AF06EFF9DF8340068700E98A86005F1B4
:1010900034000CF058FD04244FF47A720023A14967
:1010A000286105F18800009409F014FB1F2001213C
:1010B0000AF054FC012620468DF82B0100248DF8FF
:1010C0002A610820ADF8D8603146ADF8DA000DF598
:1010D0009572ADF8DE404FF44870ADF8DC00642046
:1010E000ADF8E00040F2053002F076FB40F2063049
:1010F000022136AA02F070FB05F14E024FF4427055
:101100001B2102F069FB05F1400240F207300E217D
:1011100002F062FB4FF4447031460DF22B1202F0E4
:101120005BFB40F2113002210DF1DA0202F054FBB8
:1011300040F21230022137AA02F04EFB40F2133087
:1011400002210DF1DE0202F047FB4FF4457002214F
:1011500038AA02F041FBB74903200AF0C9F906207A
:10116000A0210AF0FBFB0720A0210AF0F7FB0820D2
:10117000A0210AF0F3FB0920A0210AF0EFFB2E9436
:1011800037468DF82C6103208DF82D4104218DF810
:101190002E012EAA8DF82F714FF481600AF0AAFB60
:1011A0004FF480604BAA39460AF0A4FB40F202409B
:1011B0000DF22D1239460AF09DFB40F203400DF569
:1011C000977239460AF096FB40F206400DF22F1254
:1011D00039460AF08FFB03200AF060FD04200AF074
:1011E0005DFDB048B04A132109F0FCFFAF4E384610
:1011F0001121721D06F0D0F802200521324606F0BA
:10120000CBF805203246014606F0C6F8032013212C
:1012100006F1280206F0C0F804203246014606F026
:10122000BBF80620122106F1160206F0B5F80427D5
:101230000820B84EADF83C003078ADF83E70800024
:1012400010900FA80AF08CFE00280CBF1198201CEB
:10125000BD49486138B10BF071FDBB48BB4A06215E
:10126000183009F0BFFFBA48B74988600BF07EFB21
:101270002146B84F0091B849642243F69823381D9F
:1012800009F028FAB54C002044218146207007F06F
:1012900079FC08B14FF00109B3465FEA090046D076
:1012A000AF4D1F20022229460CF046FC00283CD0FE
:1012B00029880806000C40EA2120782834D1102023
:1012C00028802946022002460BF0ACF968B30220C0
:1012D000294602460CF030FC38B329880806000C79
:1012E00040EA2120B0F5805F1ED1002028802946E9
:1012F000022002460BF096F9B8B1022029460246B8
:101300000CF01AFC88B129880806000C50EA21204C
:1013100028800AD10CF098FC012009E0200500206B
:10132000B58900004DD5000028800CF08DFC002010
:10133000217810B141F0010020700020432107F016
:1013400021FCFE200DF1E20102220CF0F5FB18B3A6
:10135000BDF8E200BDF8E21045F249470006000C76
:1013600040EA21208742ADF8E20015D1FF200DF1BF
:10137000E20102220CF0E0FB70B1BDF8E200BDF822
:10138000E2100006000C40EA2120B0F5805FADF8C5
:10139000E20008BF012700D000270CF055FC2078A0
:1013A00017B140F0020020707721002007F0EAFB1F
:1013B000002843D0D0204CA901220CF0BDFB00280E
:1013C0003AD09DF83001582836D1F5204CA9012299
:1013D0000CF0B2FB00282FD09DF8300100282BD153
:1013E00055208DF830014CA90122F4200BF01AF998
:1013F00010B3F4204CA901220CF09EFBE0B19DF843
:101400003001552818D1B6208DF830014CA90122A1
:10141000E0200BF007F978B1F4204CA901220CF080
:101420008BFB48B19DF8300130B90CF00DFC012068
:1014300005E0C04685DE00000CF006FC00202178A7
:1014400010B141F00800207009F036F818B120788A
:1014500040F00400207008F085F918B1207840F0C1
:10146000100020700CF0E0F9604D08B309F04CFC5E
:1014700001200C2107F086FB2846FF224E90011D1B
:101480000A705191002001220CF056FB38B1284619
:101490000079482803D10CF0D7FB01200FE00CF0B5
:1014A000D3FB0BE01418002018E90000ACE10000A9
:1014B0000CF0CAFB28464E90011D51910020217866
:1014C00010B141F02000207004F06CFF051C01D029
:1014D00008F06CFC207815B140F040002070CA493B
:1014E00088707F2814BF0A200F20052109F0A6FB71
:1014F00004F0A4FA002840F0B38004F053FF5FEA40
:10150000000800F0A480C048394F00252E46C4686A
:101510004F965DE06C090020C5F30C004FF0000908
:1015200008B94FF0010948B920460F2101220AF0FD
:10153000FFFA204600220A210AF0FAFA05F5802077
:1015400007F0FCFF00242DE08C20002000E90000C3
:101550003FDE0000A03500201DD5000038360020F9
:101560001C36002007F1100661194FF480723046D6
:1015700006F056FA60194FF48071324600F580206B
:1015800007F0C6FA5FEA00080AD0B24600261AF849
:10159000011B4F980AF0ECFD761C4F90300AF6D0F4
:1015A00004F58074200B08BFB8F1010FDAD096481B
:1015B000C468B9F1000F09D020460F2100220AF0BB
:1015C000B7FA204601220A210AF0B2FA05F5805541
:1015D000680C08BFB8F1010F9ED0B8F1010F09D017
:1015E0004FF4F42007F0AAFF2FE0C0469C23002010
:1015F0009832002020460A2100220AF099FA4F98DA
:1016000000210AF0B5FD00210AF0B2FD04464FF4B6
:10161000F42007F093FF3C800026BE810422BA73B9
:101620004FF6FF7078803546BD804FF40043FB8055
:10163000FF24FC7346263E7210217E723A46BE722B
:101640004FF4F420FE7207F063FA08F0AFFB6E4827
:101650008078B8F1010F03D06B4920F0400088700A
:1016600008200427ADF848009BF80060ADF84A70E8
:10167000B000139012A80AF073FC00280CBF149855
:101680000020AF4CE06038B10BF058FBAD4A04F1DC
:101690001000082109F0A6FD6068AB4910B90846A2
:1016A000801D60604FF47A77084607800BF09AF946
:1016B0000220642101220BF085FF04260820ADF8EA
:1016C00054009BF80050ADF85660A800169015A87D
:1016D0000AF046FC00280CBF179800209B4CE060E5
:1016E00038B10BF02BFB9A4A04F11000082109F0E5
:1016F00079FD6068974910B90846801D606008460A
:1017000007800BF043FA0220642101220BF072FFE4
:101710000020432107F036FA58B11020ADF8E4005C
:1017200039A9022002460AF07DFFC64908700CF074
:101730008BFA0820ADF860009BF80050ADF86260AD
:10174000A800199018A80AF00BFC00280CBF1A98E2
:101750000020BD4CA06038B10BF0F0FABB4A04F198
:101760001400082109F03EFD6068B94910B9084627
:1017700008306060002048700846478008F024FE6A
:101780000220642101220BF029FF0820ADF86C0033
:101790009BF80050ADF86E60A8001C901BA80AF0E2
:1017A000DFFB00280CBF1D980020AA4DA86038B1AF
:1017B0000BF0C4FAA84A05F12000082109F012FD37
:1017C0006868A64910B90C460C346C600C460020C1
:1017D000A349E0800646A7804E9A0E703346E67015
:1017E0001546237002F1280005F11C0106F0B2F93C
:1017F0002A469C4950610CF03CFB3546956104F04B
:10180000E9FF40B102E0C046200500200AF020FFB9
:1018100095494E9881610220642101220BF03EFB24
:10182000B146CDF800909149A38804F124003A46CE
:1018300008F050FF04260820ADF878009BF800500F
:10184000ADF87A60A8001F901EA80AF089FB002856
:101850000CBF20984846864DA86038B10BF06EFA50
:10186000844A05F10C00082109F0BCFC6E6882482E
:1018700016B90646361D6E6006464FF448707080F5
:101880004846707009F002FF0220502101220BF03F
:101890008DFE48460AF0D1FD48460AF0CEFDCDF84F
:1018A0000090C7497388642206F1080008F012FF0F
:1018B00004250820ADF884009BF80060ADF8865040
:1018C000B000229021A80AF04BFB00280CBF2398FF
:1018D0004846BC4D686038B10BF030FABA4A08355A
:1018E0000521284609F07EFC0BF0A8FF4946DFF8E9
:1018F0003C830091CA4964223B4608F1080008F085
:10190000E9FE03200BF072FF28B1C948C549C64A59
:10191000C0680AF071FE08200427ADF890009BF81B
:101920000060ADF89270B000259024A80AF018FB72
:1019300000280CBF26984846CA4DA860A0B10BE00D
:10194000E01E002048E900002A0D0020501E002063
:101950003CE90000921200200BF0F0F9C84A05F1B2
:101960000C00052109F03EFCC64F381D68604E464C
:101970003E704846787008F0FDFFC34DC34A07210A
:1019800005F1200009F02EFCDFF830936B680BB9ED
:101990004846686007F02EF904260827DFF820A3E0
:1019A000ADF89C709BF80050ADF89E600AF1040001
:1019B000CBF82800A800289027A80AF0D1FA002820
:1019C0000CBF29980020C249886038B10BF0B6F9E5
:1019D000BF48C04A39461C3009F004FCBE48BC4927
:1019E00048600AF09BFD4D46BC4FD04950970028F7
:1019F000C86046D00AF092FDCC490E4608610C360C
:101A0000316800283AD00AF089FDC849486128B9F0
:101A100030680BF00BFDC548006930E00846C0682F
:101A20000BF08CF9C14800690BF088F9BF48406998
:101A30000BF084F9BD48C94A1021203009F0D2FBCF
:101A40001FE0C04614360020BC1D002030E9000015
:101A5000DC0F0020801C002054E90000C822002078
:101A60003636002015D800003DCE000035D50000E8
:101A70000020002060E90000F424002008460BF05C
:101A8000D5FC5046A94980685746886107F10C008B
:101A90000CF059F851469BF80270086037BB644857
:101AA0009BF801909BF803601C30CBF824001820B1
:101AB0000BF064F9071C19D0042100220BF0E6FE9C
:101AC00048460BF051F838727E720020B8720BF164
:101AD0004803FB600BF158023A610BF12001796178
:101AE0000BF05CF9C24A394609F020FD0C200BF0DE
:101AF00045F9071C0BD0012104220CF047F84C4893
:101B00002030B8600BF04AF939460AF049FD4848E0
:101B1000BB49C0680CF0ADF9B749DFF8D8A2086836
:101B200041F28831B1FBF0F14F91B44942F21076A5
:101B3000B6FBF0F0529001F1080253920820ADF884
:101B400008000A27ADF80A704FF0FF36039602A886
:101B50000AF006FA002840F0B18600202D900827F0
:101B6000ADF8A8700926ADF8AA602AA80AF0F8F91D
:101B70002C9E00282D9640F0FB83BDF8AC00102869
:101B80000ED12B489DF8AE104078884208D13146DE
:101B90000878B02804D101F1080009790BF078FA2F
:101BA0002D98002800F0E4833846ADF81000059623
:101BB0000327ADF8127004A80AF0D2F9D8E3C046A2
:101BC0005DCE0000CC21002078E9000018480669AD
:101BD00030460BF02FFB864208BF002702D08768F3
:101BE0000BF018FC381C00F0C3833E78761E00F022
:101BF0000F83761E40F0B2837978B878062919DC15
:101C0000062900F09981491E00F0C282491E00F0A9
:101C10006B82891E00F01882491E00F0D6819DE378
:101C2000857900000060004103000081202500202C
:101C300020050020C91F00F0B780891E00F08680B3
:101C4000C91E11D0491E40F08983012806D0022800
:101C500040F08483CD480CF063F97FE3CB480CF06F
:101C60005DF97BE370210020002839D1CF490020A5
:101C700009F0C6FF2E7E012E0AD9761F22D06DE311
:101C800024E900008C260020701F00206CE9000071
:101C9000012E04D10BF0C8FD002800F05F83287EE0
:101CA000697E06F06FFF002800F05883287FAA7E27
:101CB000BE490AF0B7FC0BF0C7FF4FE30424002035
:101CC000F4250020E869AA7EB84905F0A9FE45E39D
:101CD000201D00200CE9000010270020280D002006
:101CE000012825D0022840F0398302200DF1FA01A5
:101CF00009F086FF7E209DF8FA60E8619DF8FB10F0
:101D00002E76052E697614BF02200420CD49A876D0
:101D1000A87E8DF8FA0009680DF1FB060DF1FA02B4
:101D200001203160052109F0D5FA17E3441900209C
:101D300001200DF1F20109F063FF9DF8F200C149A5
:101D40000DF1F306A8763068086007E3012807D094
:101D5000022840F0038308F0A1FDFFE2C8E0000084
:101D6000CC490DF581700A6849680260022641601D
:101D70009DF803119DF802019DF805219DF807319A
:101D8000009600EB01209DF809619DF8041101EB1C
:101D900002219DF8062102EB03229DF8083103EB96
:101DA000062309F0C1FDD9E2012805D088BBCD4941
:101DB00000200BF0FDFC2CE0CE4901200BF0F8FCDC
:101DC0000846007802281DD0C649002009F048FEC8
:101DD000C948C0680A210022064609F0A9FE00226F
:101DE00030460F2109F0A4FE0AF0D4FD11E0C046F0
:101DF00091DE00000C00014084EA0000262600204D
:101E0000B58900000BF026FF4870B649002009F0A4
:101E100027FEB8480078012840F0A082B648B54BAC
:101E2000C6685878400834BF002201220A21304693
:101E300009F07EFEAF484078800834BF00220122BE
:101E40000F21304609F074FEAA484078C00833D309
:101E5000C3480660002004F027FD02200AF028F99C
:101E6000C9480068BF490268C8489047BC48006834
:101E70001521172206460AF0A9FBFEB1DAF8000088
:101E800020F00100CAF8000045F6C056CAF81C60F0
:101E90000023CAF82C3042F6E062CAF8242011462A
:101EA000CAF828101E46CAF83460DAF8000040F07C
:101EB0000100CAF8000001E00AF06CFD8D4840788E
:101EC0000009C0F04B8204F06DFA002800F0468251
:101ED0008948D0F80CB00026C6F30C004FF000097A
:101EE00008B94FF0010948B958460F21012209F0FD
:101EF0001FFE584600220A2109F01AFE304607F05C
:101F00001DFB7D48C068B9F1000F834608D00A2147
:101F1000012209F00DFE584600220F2109F008FEAB
:101F200006F58056F00CD7D058460A21002209F059
:101F3000FFFD07F03BFF11E2401E02D0401E37D0EC
:101F40000CE20BF087FE000922D3B9484678FF2E39
:101F500022D001200DF231110AF0E2FD9DF831018D
:101F600028B19DF83101012816D1012106E0002099
:101F7000062201460BF032FB4FF0FF31AB4805F073
:101F8000B1FC9DF83101AA4948700AE0A43500204F
:101F9000A749FF20064648700120314602460BF053
:101FA0001DFB00200AF0CEFCD8E1C046242400200E
:101FB00002200DF231110AF0B3FD9D4E9DF8311152
:101FC000480000EBC1007080C8E1401E02D0401EF6
:101FD0002FD0C3E10BF03EFE800820D3C5484678E1
:101FE000FF2E20D001200DF599710AF0B7FE9DF863
:101FF000320128B19DF83201012814D1012106E0F7
:102000000020042201460BF0F5FA4FF0FF31BA48E8
:1020100005F068FC9DF83201B64948709EE1B5496B
:10202000FF20064648700120314602460BF0E2FAD6
:1020300094E102200DF599710AF090FEAD4E9DF8E5
:102040003211BDE720240020401E02D0401E3CD0AB
:1020500084E10BF0FFFD40092AD3E088FF2829D056
:1020600001200DF1E60109F015FDBDF8E60010F0C4
:102070007F0F11D0BDF8E600E080022005F0EAF9FC
:102080000BF0D2FB70B14F9806F024FEBDF8E600CD
:10209000E08007E0321D0020BDF8E600E08000206F
:1020A00005F0D8F9C34A0120022107F0C9FC06E077
:1020B000FF20E0800120FF2102220AF0EFFE002035
:1020C000122201460AF0EAFE48E102200DF2331125
:1020D00009F0E0FC9DF83301410001EBC001B34879
:1020E000A1804DE08D260020401E07D0401E3BD031
:1020F00034E1C0468C260020200500200BF0AAFD0C
:10210000C00823D3AD480678FF2E23D001204DA967
:102110000AF074FE9DF8340160B9DEB1A4480BF0FA
:10212000FFFE00200AF089F90020022201460BF090
:102130003DFA06E076B901200AF07FF99C480BF0E1
:10214000EDFE9DF834019D49087007E19B49FF2091
:10215000064608700120314602460BF027FAFDE0E2
:10216000142700200A00000402204DA90AF046FEB0
:102170009DF83401410001EBC0018D488F4E718004
:1021800007F092FEEAE0C046C801001000000140DE
:10219000401E02D0401E32D0E0E00BF05BFD400854
:1021A00020D350984678FF2E20D001200DF2351113
:1021B0000AF014FE9DF8350128B19DF8350101287B
:1021C00014D1012106E00020042201460BF0FAF9A7
:1021D0004FF0FF31784805F085FB9DF835015099A7
:1021E000487008E05098FF210E46417001203146AA
:1021F00002460BF0E7F9002008F056FFAEE002209F
:102200000DF235110AF0EAFD509E9DF83511D7E622
:102210007E78701E72D0401E54D0801E012865D971
:10222000801E07D0801E58D096E0C046E80F0020E0
:10223000DC0F0020C0480BF0A7FB10B9BE480BF024
:102240006DFEBE48C0680A210022814609F070FC7C
:10225000002248460F2109F06BFC00224846152158
:1022600009F066FC40F216303AA903F03FF940F25B
:1022700013300DF1EA0103F039F94FF446703BA930
:1022800003F034F99DF8E8009DF8EA20BDF8E83045
:102290008DF81A01BDF8EA108DF81C2118129DF86E
:1022A000EC308DF81B0108128DF81D01BDF8EC20F3
:1022B0008DF81E3110128DF81F010DF58D700AF08A
:1022C000A1FA49E09C480BF05FFB10B99A480BF06B
:1022D00025FE00200BF046F93EE00AF097FB9748F8
:1022E000C0680A21012209F023FC35E00AF08EFBC8
:1022F00032E0C046901200209C1200200F200521E1
:1023000008F09CFC4FF441700DF5857103F0EEF878
:102310009DF80B318DF813319DF80C218DF81421A7
:1023200000218DF816119DF80A018DF812010B4657
:102330009DF80F218DF8153100208DF819219DF899
:102340000E119DF80D318DF818110DF589728DF86B
:102350001731082105F020F8784806700820ADF8FC
:10236000180007970526ADF81A6006A809F0F8FDD1
:10237000724800690BF011FC00283FF427AC98F874
:10238000010041082CD320F0010088F801000A2048
:10239000014608F053FC03F051FB88B96748C06858
:1023A0000A21012209F0C4FB18E0C046EC220020FB
:1023B000FC240020CE220020340D0020F424002034
:1023C0005E48C0680F21012209F0B2FBBE4B4FF4FA
:1023D00082204FF480524FF4F031984798F8010072
:1023E000810809D320F00200544F88F801003878A2
:1023F000062801D107F000FC98F8000098F80210B8
:1024000088423ED00AF062FA98F8027098F800000C
:10241000790804D341083CBF0021A8F80410B9088A
:1024200004D381083CBF0021A8F80610434909786D
:10243000022905D10BF096F898F8027098F8000080
:10244000B9080BD3810809D23C490978062905D07F
:1024500007F0D2FB98F8027098F8000010F0030F14
:102460000FD077B9B7480BF08FFA40B9B5480BF0E9
:1024700055FD0020A8F806000746A8F8047098F853
:10248000000088F80200B14847785FB3002045217A
:1024900006F078FBE8B101203CA902220BF04CFBCE
:1024A000A8B1BDF8F0006FF30E00B0F5004F0ED1EB
:1024B00000203CA902220BF03FFB40B1BDF8F00028
:1024C000BDF8F010000240EA2120ADF8EE000BF05C
:1024D000BBFB002002210DF1EE0207F025FF9B4916
:1024E000002048709A480778002F00F0D781E088D4
:1024F00010F07F0F00F07F0900F0CD8100208DF8F3
:1025000036010BF091F9D8B10120682106F03AFBB1
:1025100058B13A200DF59B7101220BF00DFB10B95B
:1025200000208DF836010BF08FFB9DF836119DF8D9
:102530003601A17008E0C046A80500202005002053
:102540000BF082FB0020A0707F490F781FB9217823
:10255000022940F00481E178C20930D2400839D321
:102560000BF062F988B10120682106F00BFB70B115
:10257000BB49432006220BF0DFFA07460BF064FB51
:102580002FB1B7480BF064F901E00BF05DFB0BF0E5
:102590004BF988B10120682106F0F4FAD0B1B149B5
:1025A0003B2006220BF0C8FA07460BF04DFB8FB11B
:1025B000AC480BF04DF90DE00BF046FB0AE0491C6E
:1025C000C8B20228E07005D1A08842F21071B1FBB8
:1025D000F0F0A06027785C490020022F087040F0DE
:1025E000BE80E088C009C0F0BA800BF01DF9002859
:1025F00000F0B0804E98002141706821012006F063
:10260000C1FA22200DF2371101228DF8370137204F
:102610000AF008F810B94E98052141700BF014FB30
:102620004E984778002F40F09A8001200C2106F048
:10263000A9FA02200DF2371101220BF07DFA0028D1
:1026400044D09DF8370140083CD303200DF591712B
:1026500007220BF071FA002832D09DF828010009FA
:102660002CD27F4F9DF823119DF822019DF8252142
:102670009DF8273140EA012000B24E9EB8819DF8B6
:10268000247147EA0221764F09B2F9819DF826713B
:1026900047EA0322724F12B2B6F90A303A8259431E
:1026A000B6F90870B6F90C3078436D4F00125A43F2
:1026B000B8810812F881101238820AE0032106E07E
:1026C000042104E0022102E001F0010001214E9802
:1026D000417011208DF837010DF2371101220A20C7
:1026E00009F0A0FF0BF0B0FA4E984778052F24D0E0
:1026F000002F34D00BF098F800282ED008F004FBFF
:1027000068B301200C2106F03DFA40B34E9E51996A
:102710000120012230710B2009F084FF529806F04D
:10272000D9FA3078C00918D3304611210171519976
:1027300001220A2009F076FF0FE00020A060FF27A9
:10274000277014E02825002037360020F4240020CC
:10275000363600204E98062141700BF075FA20465F
:10276000A7680078002F7FD1012800F09480002016
:10277000E0700127277004F02DF8002800F08B800E
:1027800066780BF051F8002866D03846682106F0CC
:10279000F9F900287FD04E980921017151993A46E4
:1027A0006B2009F03FFF002856D04E980721017199
:1027B00051993A466C2009F035FF00284CD04E98CC
:1027C0003946017151993A461D2009F02BFF002826
:1027D00042D04E984021017151993A46382009F073
:1027E00021FF002838D04E98C021017151993A46F6
:1027F000692009F017FF00282ED04E9851993A46CB
:1028000006711F2009F00EFF30B34E9806210171AA
:1028100051993A461E2009F005FFE8B14E9829214A
:10282000017151993A466B2009F0FCFEA0B1BC49F8
:102830001C203A4609F0F6FE70B151993A203A460A
:102840000BF07AF90BF000FA4E9800210170B249B2
:10285000406909F0FDFB1EE00BF0F6F91BE0C046F5
:10286000D8220020DE220020022809D00220207079
:102870000027E77003F0AEFF10B1484604F0E4F81B
:10288000E088000A02D3A068401EA060A64A00208B
:10289000122107F0D5F8A54900200870A448077850
:1028A00067B101460020087008F028FFA149497867
:1028B000814203DD9F49487006F0D4F99E480178B3
:1028C0000746B888C20810D320F004003A4602290F
:1028D00090800AD199480BF021FB384600780228F5
:1028E00003D10F20012108F0A9F9954800680BF0E9
:1028F00054F900287FF422A9914800680AF09AFC54
:1029000007469048397A4078012907D0022940F0DB
:10291000F6807889F96802F023F8F0E0B7F80AB099
:10292000FE6808280CBF4FF000094FF00409864BE1
:10293000717830781A4600EB01201880B078F17871
:10294000744B00EB01205080307B717B00EB012049
:10295000D881B0881A46D080F08806F10802188124
:10296000539B116819606B49B07B08740AF0B2FD83
:1029700068B36848007C022804D0032818BF4FF4CD
:10298000F02001D14FF4F22010212FAA07F004FC0F
:102990000AF022FFBDF8C200ADF8CE00BDF8C000BD
:1029A000FF2808BF002031A9ADF8CC00096834A881
:1029B0000160FF228DF8D720BDF8C8008DF8D50042
:1029C0009DF8CA308DF8D63001128DF8D41009EB7D
:1029D00006025C4ED1789078334600EB01208010DF
:1029E000B080002159800B463370107A517AD67826
:1029F00000EB012083009178907A01EB06218E1084
:102A0000B6F5005F43DC002E41D0032804D0190B3B
:102A10003DD0B3F5F83F3AD8B3F5805F01D0012837
:102A200035D0BDF8CC604FF6FF71B14208D03EB151
:102A300013881BB19E424FF0000200DA012232B32C
:102A4000012814BF4FF4003000203E49C861060B36
:102A5000CE800AF03FFD20B95846022106F0DEFC88
:102A60004DE038483749C0888988C6B200EB21213B
:102A70005FFA81F904E0300306F060FD761CF6B2DF
:102A8000B145F8DA5846002106F03EFE37E02D4801
:102A9000C16858460AF058FF40082ED3584608210E
:102AA00000220AF0E7FA0646099636B31B481D4A8B
:102AB00010210AF01DFF08224089ADF82220ADF850
:102AC00020009DF8CC303370BDF8CC100998091265
:102AD00041709DF8CE108170BDF8CE1034AA091255
:102AE000C1701168061D5846316008A90AF012FC31
:102AF00018B108A81B210AF0CBFA0AF06DFE0820D5
:102B0000ADF828000B970526ADF82A600AA809F051
:102B100027FAEAE624260020070006806419002030
:102B20009F2300204C190020D82200203636002098
:102B3000A03500208C20002020050020A8050020C2
:102B4000F425002044190020262600202DE9F04F0E
:102B50000120ADF14C0DADF81A000827ADF8187042
:102B600006A809F0FDF900263546DA4C8DF84A50E2
:102B70009DF81C006070A6700898E0614FF6FF7029
:102B8000A08238460AF0FAF85FEA00080DD0012169
:102B900012220AF0FBFF0AF001F90DF14A010123AC
:102BA000D54A0091414608F0DFFC9DF84A00DFF865
:102BB00060934FF00108207032463346494604F1D5
:102BC000A800CDF8008007F085FD022104F1CC00BB
:102BD000324633460091494607F07CFD042104F15A
:102BE000F000324633460091494607F073FD042059
:102BF00031461022E07004F1480005F03FFD04F179
:102C000058003146102205F039FD256226726672A1
:102C10000720E67204F148021021A072022009F098
:102C200009F804F158020320102109F003F80420E8
:102C300004F12002014608F0FDFF01E007F02EFE3E
:102C40000A20ADF80A00ADF808704FF0FF35039583
:102C500002A809F085F9002840F0E28130460C9086
:102C6000ADF824700925ADF8265009A809F078F9C7
:102C7000DDF82C900028CDF8309040F0D181BDF8DF
:102C80002800102840F0C08160789DF82A10884202
:102C900040F0BA814D4628884FF6FF71814200F01E
:102CA000AB812B78A23B00F08D812E3B40F0AC81B4
:102CB000A878B046002800F05A81801E00F03581C7
:102CC000401E012840F20881801E00F0B980401E9D
:102CD0007FD0401E60D0083800F06581801E40F033
:102CE000678194F83E30A888052BADF834004BD0AE
:102CF00001208DF83E00BF480BF012F994F83E0019
:102D0000012820D004281ED003280DD002280BD083
:102D10000C98C188ADF836100189ADF8381041899A
:102D2000ADF83A1080892BE0B4F84000B4F8425076
:102D3000ADF83600B4F84430ADF83850B4F8460079
:102D4000ADF83A301CE0B4F84000E9888842D8BFBA
:102D5000081CADF836002989B4F842008842D8BF73
:102D6000081CADF838006989B4F844008842D8BF1F
:102D7000081CADF83A00B4F84610A889814200DC7E
:102D80000146ADF83C1001E08DF83E60B14A0DA857
:102D9000122109F038F80BE1AF480BF0C1F8687860
:102DA000002840F00581E888E0822889208368892E
:102DB000608390480AF0E8FD002840F0F980A56A99
:102DC000002D00F0F5802B68E08A218B628B9847FC
:102DD000EEE0B5F804A00A2009F0D0FF5FEA000891
:102DE0000AD0012115220AF0D1FEA8F808A009F0A6
:102DF000D5FF414609F0D4FBBD483146062205F017
:102E00003DFCE68226836683A879607379480BF0DF
:102E100087F891480BF084F84FF001084FF6FF70E7
:102E20006379A0824BB9A879082814BF0420052033
:102E3000A07040460AF0AEFBBAE00320A070B7E0F5
:102E40006878002840D1AA49281D02680A60808855
:102E500088800623A3706889A082E889E082288A96
:102E60002083688A6083E878207394F83E00012804
:102E700018BF022808D11F2008F096F94FF47A7184
:102E800041435C4808F01EFC95F803B0B5F80AA071
:102E9000142009F073FF5FEA000800F08C80012124
:102EA00014220AF073FE88F808B02D1DC8F80C50E3
:102EB000A8F810A0042088F8120009F06FFF854AD6
:102EC000414608F033FB76E06878312869D12671F5
:102ED000042024E06C0900206878002861D1A878DB
:102EE000618AA278032815D02079657931B9012843
:102EF00014BF6671267107E07FDB0000054303D035
:102F0000774808F0DFFBA278072AE1D1062006E027
:102F100095D50000062A06D0207910B90320A070AC
:102F200049E00220FBE70720F9E76878002838D15C
:102F3000EB78A078E17993B9022815D0072813D04F
:102F4000062802D1617901290ED103280CD06448EA
:102F50000AF01AFD40B901200AF01CFB04E0654AA2
:102F6000404607F041F968706878D0B920E0687889
:102F7000B8B95C4A0220102108F076FE5A4A0320B4
:102F8000102108F071FE5C48ED1C29680160AB88D7
:102F900083805A4A01252846A179A57007F024F9B3
:102FA00048B1A77007E0A8884B4A102108F012FF2B
:102FB000B8F1010F28D1606A30B3016821B3A0785D
:102FC000884721E0687913281ED12889012808D173
:102FD000A07B022805D120480AF0A2FF07F05EFC82
:102FE00012E0052008F0E0F801461B4808F06AFBF3
:102FF0000AE0C046380A00206888C00B04D33B4A68
:103000000420014608F030FE0C9848B1ADF810706D
:103010000320ADF81200CDF8149004A808F0A0FF2A
:10302000208A65792179420830D320F0010055EAE1
:10303000010320822AD08DB93149207A8DF84000D1
:10304000657A8DF841500A680DF142031A6089884B
:10305000998006E08BDE00005C0A002003208DF8DA
:103060004000A07AE57A1D4A8DF8480006218DF8C7
:10307000495010A807F026FE616A30B1A77021B14F
:10308000086810B1096838468847208A810807D344
:103090001C4920F002002082304605F06FFA208A99
:1030A000C108FFF4CDAD20F00400A57B2082681E8E
:1030B00003D0401E3FF4C2ADC2E501200090B4F839
:1030C0004210B4F84420B4F84630B4F8400008F098
:1030D0002BFCB5E571DB0000AFDE0000A3DE0000D5
:1030E000140A0020B4090020C40900208C09002023
:1030F000A4090020F309002098090020D409002029
:103100009E090020AA0900202DE9F84F8046DD48DD
:103110000122A0F130010A60D7490F68002FFCD0CE
:10312000D74CD64AC02704F1040B1760DBF8001017
:10313000890804D22168090C41F0F00100E07221F5
:10314000E34AE44D4FF0000A82F85412A5F1D40787
:10315000C0F800A0A66838683146C0F3046016289D
:10316000A8BF203800EB2170401C162805DA10F1AA
:103170000A0FB8BF6FF0090000E01520E64AE74FDC
:1031800000F01F0040F4F8501080386880083ABF03
:10319000E348C0F800A041F04061E24AA946C80EE9
:1031A0008F0EA9F13C0580F0010000F001001060D5
:1031B00087F0010000F0010090602868C0F3836789
:1031C000C0F38F21B00C22D246F3072000280BD584
:1031D00042425046490805D17F0806BF0127391CE5
:1031E0004FF6FF71521EF5D1002810DD4FF6FF7229
:1031F000490041F001018A4207D27F0047F00107F0
:103200000F2F92BF01210F27111C401EF0D141EA60
:103210000741182008F058FC28682F68C34DC0F3F8
:10322000870140F2FF32534607F0030041EA0021D4
:1032300088B22C210090A5F1400007F077FB4D46A5
:10324000A5F110073868C0F30D011C2008F03CFC04
:10325000B54957F8080C014000F07C4001431420A8
:1032600008F032FC57F80C1C01F47C000904090C2E
:103270000143102008F028FC57F8042CDBF800105C
:10328000C2F30350C2F30343490812D221680C056C
:1032900010EB247003D41028A8BF0F2000E0504684
:1032A000090413EB217303D4102BA8BF0F2300E0F4
:1032B000534643EA001302F47F4002F0FF01B8F1E5
:1032C000220F40EA034041EA000124BF02F080429D
:1032D00011430C2008F0F8FBB8F1220F32BF012097
:1032E0002868C0F30070914CB8F1220F4FEA4000FB
:1032F00040F0200084F8090126BF2868C0F3407020
:1033000001208B4FB8F1200F40F0100084F8090124
:1033100038BF514606D33968C80C00F44070C1F379
:1033200084510143282008F0CFFBB8F1200F26BFBD
:103330003868C0F301505046B8F1220F4FEA400000
:1033400040F0600084F80C0126BF2868C0F3C0601C
:103350005046B8F1220F4FEAC00040F0800084F8D8
:10336000010126BF2868C0F345505046B8F1200F30
:103370004FEA800040F47C40A4F89C0138BF6D49BE
:103380000AD3386801038A15920501F47C1100F014
:103390000F00114341EA0031082008F095FB4F4629
:1033A0004FF480002060A7F1D000816D40F20F2221
:1033B0006FF31F418A4213D901680068C1F30363A8
:1033C000C0F3034003B15B1E072805D006280EBFDB
:1033D0000720801C00F00F003D4943EA00100870F0
:1033E000C6F381435B1E02D05B1E27D022E0396802
:1033F000880C1FD24FF4804020604F48D0F8022044
:103400004B0A03F0800322F08F021343C1F303320F
:103410001A43C0F80220D0F801300A0A62F303030D
:10342000C0F80130026801F0E70322F0E70243EA46
:10343000020102E04FF0004120460160DBF800008D
:10344000C0F3C0030BB94020A0624FF400702064A9
:103450002868C0F3C14040F0300084F8C800C6F3CB
:1034600081503A4E4FF04008B0B3401E0CD0401E81
:1034700029D0022128E0C0469402224300600C407B
:10348000AC3F005040100940012009F00FFE0546F6
:103490000420294607F0F8F8042009F007FE8542C9
:1034A000FAD12648056825F07F4008F0A1FD304696
:1034B00014300068036807214FF06022280E9847F7
:1034C0004FF4806020600321042007F0DDF80AE05B
:1034D000026008408C1300500420012107F0D4F84A
:1034E000174808F085FD203F38681649164B47F607
:1034F000180500F03F0084F8CB0F32460D801868A5
:103500001068C168022088471248114FC0F8008037
:1035100001213960BDE8F88F6E6208400000094063
:1035200094042A4300002043FCFCFC0040A00C4013
:103530009813005000803F400A600840A83F0050A8
:10354000BD37860070B00C402C200940A00100104F
:103550009404604200600C402DE9FE43974C0F46F6
:103560000546F80B80F00081B80880F0ED80B80FB8
:103570006ED2A07A00284FD138094FD300250126FA
:1035800065708F4826720AF01DFB8E492A4604F1A9
:1035900060000AF0A4FC6079012821D1A079F8B973
:1035A000DFF82482E669D4F81490D8F8000078B1E6
:1035B0000AF008F9A0EB09004346000B8619A06148
:1035C0001868B6EBC01F24BF281CE0610AD2E66170
:1035D00004F1BC004FF000510AF078F8284619E0D9
:1035E0006671284640F60903A38694F8413003F03B
:1035F000F00343F0010384F84130E58694F840304D
:103600002A4603F0F00384F84030704EA26304F1C0
:1036100034013160606118E0380914D2B80BC0F091
:10362000C48004F124000AF077FC061C08D07068FE
:1036300030B17568F068B6F91C1000222023A84745
:1036400027F40057B1E00020A07227F00807ACE093
:10365000A968088840F60208804507D00A8B4FF613
:103660001F60104040F43470088306E00A8A4FF669
:103670001F60104040F4347008826069D0B10420AB
:1036800009F014FDB0B10AF09DF86169814226BFCE
:10369000401A401E401A000BE860688AE96840182A
:1036A00040F6C411E860814203D340F2EE22824228
:1036B00000D9E960AE699EB14548B04210D094F897
:1036C000410010F00F0F0BD1698C08F10700884200
:1036D00006D128466FF4807100224FF00073B04786
:1036E0003C4904F1600000220AF0F9FBA07958B1CE
:1036F0000220ADF80000684609F0ACF80026A6717B
:10370000BDF80800A4F85C000120607020794FF03B
:103710000008401C207104F1200084F807800AF0A2
:10372000FBFB002808BF47F0020702D019200AF06F
:103730006BF96E692EB1414628464FF080630A4608
:10374000B04727F0005730E004F12C0528460AF076
:10375000E3FB02F0EDFA28460AF0DEFB27F0020751
:1037600008B147F0020720E00AF098FA014604F198
:1037700028000AF0D1FB0646B569A80810D27EB130
:1037800025EA0500B06108460AF0A6FB706850B152
:103790002A46F068B6F91C1075680023A84702E0B5
:1037A00008460AF099FB27F4804727B104F1BC00D2
:1037B000394609F08BFFBDE8FE83C046481500205E
:1037C000196B0000D5CB0000283600200010044003
:1037D000EF86000029570000F8B5A0F20135174622
:1037E0000E46022D40F214818A4A8B498B4B2D1FC5
:1037F0000F2D04D9143D4AD0AD1E1CD011E0DFE8D6
:1038000015F0C300BC00F400E400B300AB000701F6
:10381000A2009A00100010009200880079006F004A
:103820006300282880F2F480022E40F0F18039886D
:1038300008F094F8F8BD012E40F0EA80154628798A
:10384000012800F0E58051793878507181B900285D
:1038500000F0DE809078012800F0A980042800F0B4
:10386000A680062800F0A380052800F0A080F8BDFF
:103870003878002840F0CC809078032800F0A280AF
:10388000072800F09F80052800F09C80F8BD012EDD
:1038900040F0BE803878012840F0BA80154605F126
:1038A000F0000AF071F8002840F0B2802C460020A9
:1038B00004F13E0104F062FE002840F0A98004F10A
:1038C000CC000AF02DFBF8BD022E40F0A180388814
:1038D0000A28C0F29D80B0F5486F00F3998015E08A
:1038E000022E40F095803888B0F5FA7F80F2908003
:1038F0000880F8BD022E40F08B8038880628C0F280
:103900008780B0F5486F00F383801946891C0D4607
:1039100038E0022E7CD13888062879DBB0F5486F74
:1039200076DC1946F3E7012E72D1387806286FDA73
:10393000891F0D460EE0012E6AD13878042867DA17
:1039400015460B3506E0012E62D1387808285FDA7B
:1039500015460A352870F8BD012E59D1387804284B
:1039600056DA1546093506E0012E51D1387804287B
:103970004EDC154608352946DBE7022E48D138884B
:10398000154612352946B3E7012E41D1154668790F
:1039900001283DD011793878107161B9002837D0ED
:1039A0009078012803D0042818BF052830D10120C1
:1039B00009F0F0FDF8BD387850BB9078022818BFA8
:1039C000052825D109F0B8FFF8BD154605F1870493
:1039D00000211F22204604F051FE3946324620467F
:1039E00004F01EF80020EE710EE0154605F16804A3
:1039F00000211F22204604F041FE3946324620466F
:103A000004F00EF80120AE713146224606F0ECFBC0
:103A1000F8BDC0466C090020B0090020AC090020A8
:103A20002DE9F04F0128ADF1140D40F0F280DFF8E0
:103A30001492D9F8DC00012840F0E9800220C9F88E
:103A4000DC000AF021F80290012006F0DBFF20B133
:103A500001210646C9F8DC10D5E009F0FDFF03900E
:103A60006E484FF00008C0F80080012009F01EFBEE
:103A7000012818BFCDF8008004D1404606F03EFA78
:103A80000120009066486E4CC0F800801934D4F8CC
:103A9000FF0F11200AF0CCF800280CBF4646012683
:103AA00010200AF0C5F808B146F002060F200AF00F
:103AB000BFF808B146F004060B200AF0B9F830B19F
:103AC000584800685849006B0246088890470A2009
:103AD0000AF0AEF80028404618BF01204FF0805B86
:103AE0000BF5DC7528B128685049006B0246088840
:103AF00090474F480127076028688069014646F0D3
:103B0000200088474B4807600AF08CF800F001015C
:103B10000191400815D248480AF000F88246BAF1EF
:103B2000040FF8D0BAF1010F06D1DBF8D8014068D4
:103B300002464148032190474049086820F00300AD
:103B40000860404600F088F92868D4F8FF1F806BB1
:103B50008047019801280ED0BAF1010F06D1DBF899
:103B6000D8014068024634483946904733490868CE
:103B700040F0030008602A48076028684069014651
:103B8000304688470B200AF053F828B128682649A8
:103B9000C06A0246088890470A200AF049F828B10E
:103BA00028682249C06A0246088890472048076072
:103BB0000322C9F8DC201F4BC3F800802868406B43
:103BC0000146304688470128F8D1042006F01AFF44
:103BD000124807601A48D4F8FF1F01688909FCD30E
:103BE0000098012802D1384606F088F90AF014F846
:103BF000082006F007FF06460398C9F8DC7008F0B5
:103C0000B5F805F053FD029808F050FF02E00426D5
:103C100000E00126304605B0BDE8F08F0C400940B9
:103C200000022243B801001042E100003EE1000022
:103C300028200860800104430040034024220840FB
:103C400014100940641A00202DE9F04F0820ADF14E
:103C50001C0DADF800000120ADF80200684608F028
:103C60007FF9774C9DF80400207002984FF0FF31E7
:103C7000606004F10C0003F035FE7248D0F800805B
:103C8000734D7148B0FBF8F10591704940F6354A23
:103C90004FF4004BA146B1FBF8F10691C8E00120BA
:103CA00008F050FE059805F015F80020772104F083
:103CB00069FF98B1F72003A9062209F03DFF0746E6
:103CC00009F0C2FF5FB19DF80C000127802806D1E2
:103CD0009DF80D601EB99DF80E6006B90027002002
:103CE00008F030FE002F00F093809DF80F109DF833
:103CF00010009DF811702A88B5F90260B5F90A30F4
:103D000040EA0120010141EA2711C2EB2110C9104C
:103D1000A1EB420106FB01F2B5F904604043071331
:103D200006FB07F0801300EBE22000EB80018031FE
:103D30000E12E9884010A0F57A40821002FB02FCC6
:103D40004FEA6C3202FB03F7B5F9083043435B10CE
:103D500003EBE7030BEBA3434B43DF13B5F90A3047
:103D60005A43B5F9083043435B1003EBE2030BEB16
:103D7000A3425143CB133BD0B5F90E10B5F9104017
:103D80004FEAEC22484304FB02F1B5F90C409DF8E0
:103D90000C2001EB400120049DF80D4000EBA10038
:103DA000011344EA02209DF80E40000140EA24106D
:103DB000284C0AFB10400AFB1104E00F19BFB4FBAA
:103DC000F3F044006000B0FBF7F4B5F91610B5F954
:103DD0001470B5F91230A208E0084043400B484384
:103DE00007FB02F1491301EB2031581804EB2014B2
:103DF0008DF80C608DF80F4030148DF80E003712DE
:103E00008DF80D70230C8DF81130220A8DF81020DA
:103E10000020062103AA05F09FFF0B4FB9F80210FE
:103E20004FF47A704843C01BB0FBF8F004F052FF27
:103E300099F8010001283FF432AF0698F6E7C04632
:103E4000DC0F002084EA00008038010040420F00AF
:103E5000E8350020000050C32DE9F84FDFF8ECB141
:103E60000746ABF13500DFF8D8A10068800880F084
:103E7000D78008F0DBFC79490831D1F800800025B3
:103E80004FEA28725FEA985102F101020AD2C0F1AA
:103E90003E0110F10A0F4FEAE101D8BF08218A4222
:103EA000B8BF0A1C634BD3F87C11C1F30461162917
:103EB000A8BF20391B68C3F30443162BA8BF203BBF
:103EC00099465118162905DA11F10A0FB8BF6FF09B
:103ED000090100E01521584B584E01F01F0242F431
:103EE000F8521A80326812F0030F18BF0125D20869
:103EF00028BF45F002050FB145F00405524692F97E
:103F00000730C31A052B04DA9379AB4208BF9188B6
:103F100066D0DFF830E10F28A0F10F0C25DB0CEBA9
:103F20000013A3F1F00C4FEA2C26072E88BF0726BA
:103F30003446062C88BF06245EF82470042303EB65
:103F400084037446E358DB1B03F0FF04EF0824BF2F
:103F5000C3F307273C44AF0824BFC3F307473C44DF
:103F60006F0828BF04EB136401E0002426465EF8C6
:103F700026E0EF080EF0FF0324BFCEF307273B44F3
:103F8000AF0824BFCEF307473B446F0828BF03EBBD
:103F90001E63A4B2ACEB0626A9EB01017443002911
:103FA00004F1800403EB1423D8BF0121342408F06A
:103FB000FF074C43A1B27943B1FBF3F14FF6FF7316
:103FC0008B4238BF191C802889B2918005DA10F124
:103FD000800FB8BF6FF07F0000E07F20D071957137
:103FE000194800681F2910604FF0000008D340F204
:103FF000FF128A4206D24908401C8A42FBD301E0E4
:104000001F219180124F0F39090940EAC10047EA88
:104010000001CBF8FB1F0026CBF8FF6FBDE8F88F3F
:104020000C490D4F524608200F60921D1070BDE8DC
:10403000F88FC0463C1100506E62084024220840B0
:104040002C3600209C130050082009403500094000
:1040500000E7A48030100940FDFDA400AC3F0050F3
:104060002DE9F0411C4615468C4208BF854282BFAF
:1040700000230022E5E0002C08BF002D0AD1002912
:104080000EBF00286FF000006FF0000100F0E1F8B3
:10409000BDE8F0815FF000085FF0000E002C08BF63
:1040A0008D429CBF2C1C0025070C47EA01470E0CD3
:1040B000B44208BFBD429EBF5FEA044444EA1544CF
:1040C0005FEA0545070A47EA01670E0AB44208BFDE
:1040D000BD429EBF5FEA042444EA15645FEA0525F9
:1040E000470847EAC1774E08B44208BFBD4200F214
:1040F0009380870847EA81778E08B44208BFBD42A3
:104100007CD8C70847EA4177CE08B44208BFBD4211
:1041100066D8070947EA01770E09B44208BFBD42D5
:1041200050D8470947EAC1674E09B44208BFBD42AB
:104130003AD8870947EA81678E09B44208BFBD4271
:1041400024D8C70947EA4167CE09B44208BFBD4237
:104150000DD8E60146EA5566EF01B14208BFB84204
:1041600001D3C01BB14158EB08085EEB0E0EA6014F
:1041700046EA95664FEA8517B14208BFB84201D3B7
:10418000C01BB14158EB08084EEB0E0E660146EA23
:10419000D5666F01B14208BFB84201D3C01BB1411F
:1041A00058EB08084EEB0E0E260146EA15762F0155
:1041B000B14208BFB84201D3C01BB14158EB080857
:1041C0005EEB0E0EE60046EA5576EF00B14208BF00
:1041D000B84201D3C01BB14158EB08084EEB0E0E9C
:1041E000A60046EA9576AF00B14208BFB84201D3B7
:1041F000C01BB14158EB08084EEB0E0E660046EAB4
:10420000D5766F00B14208BFB84201D3C01BB1419F
:1042100058EB08085EEB0E0EA14208BFA84201D37E
:10422000401BA14158EB08085EEB0E0EA34208BFED
:10423000AA423EBF2D0A45EA0465240A89D3734683
:1042400042461E4617460B46024631463846BDE8F2
:10425000F08170472DE9F843814609F0D7FC002131
:1042600000B901216B4E30680028FCD06C4D012450
:104270002D1DEF6A346009B109F0CEFCDFF898819A
:10428000C7F3072008F1BC01086009F0BFFC00215A
:1042900000B9214630680028FCD02F68346009B18D
:1042A00009F0BAFCC7F38440C8F8C00009F0AEFCBE
:1042B0000146002001B92046014630680028FCD0A4
:1042C000ED69346009B109F0A7FCC5F38120C8F895
:1042D000D000B9F5C061C8F8B81000F0968098F821
:1042E000D80068B9C8F8D410D8F8C000C8F8C80019
:1042F000D8F8BC70C8F8C470D8F8D060C8F8CC60E2
:10430000D8F8D410D8F8BC60002954BF02206FF050
:104310000100454605F1C8031A6801EB4101401848
:10432000411000EB917002EBA0021A60D5F8C810A2
:10433000C5F8C46000291CDD1E293DDDD5F8CC0080
:1043400030B93429B4BF15391E21C5F8C81025E08D
:104350002A29BABFD5F8C8000B381E20C5F8C800F6
:10436000D5F8C4003F28B4BF401C3F20C5F8C400A6
:104370001FE0D5F8CC00032812D011F10B0FC6BFF7
:10438000D5F8C8000B30201CC5F8C800D5F8C4000B
:104390000028CCBF401E0020C5F8C400032009E05F
:1043A00011F1150FC6BFD5F8C8001530201CC5F88F
:1043B000C8000020C5F8CC00B5F8C400174E302165
:1043C0004FF47F4208230090304606F0AFFA009485
:1043D00004214FF400321123304606F0A7FAB5F855
:1043E000C80004214FF4F80212230090304606F072
:1043F0009DFAB5F8CC0020214FF440620A230090CA
:10440000304606F093FABDE8F883002088F8D8001B
:10441000BDE8F88300800C40641A002000A00C4026
:1044200000A00C402DE9F04FADF1840D01F0EEF845
:1044300006F058FA0026012804D109F027F80228CE
:1044400008BF01265F490868C0F38150012806D1E2
:1044500051F80C0C0127010E07FA01F006435A48E7
:10446000614F007807F12C00036806F03BFA03F077
:104470007F03012804D109F009F8022808BF5B1C5A
:10448000524D2B602C463BB1FF2104F140001F46EA
:104490007F1E00F8011BFBD14D4800684FF000095A
:1044A00000F0FF01FE291BD0DFF824C100F0FF0758
:1044B00049460122FF2F0CD0BB427FD902FA07F7F1
:1044C0003E427BD100F0FF0047EA0909201880F83E
:1044D00040105CF8040F491C00F0FF07FE2FE9D1E3
:1044E000092002F0E1F93A48002124220823606003
:1044F00017A809F009FC4FF0010804F1240017AADD
:104500008DF87480414607F0DBFE236843B3002733
:1045100094354FF0040BBA4608FA07F0064219D159
:1045200019EA000F04BF07F0FF0141F4C04105D0B4
:10453000E019274990F8400051F82010254801F073
:10454000C3FEF8B24FF0FF3108F0BEFD2368C5F896
:1045500000A001E0C5F800B07F1C2D1D9F42DBD3F9
:1045600001A800213022082309F092FB0025FF203A
:10457000102101AB0990184A009504F1080007F0DA
:1045800011F80DA828220823294609F0C3FB04F1DD
:1045900060000DAA1395114914952B4607F03AF9BE
:1045A0000F4951F80D0C20F4F85040F4005041F838
:1045B0000D0C4746C1F8FF7F0A4E376021B0BDE8B9
:1045C000F08FC046B43F00503936002088310020BB
:1045D00060E00000007FC767E5D00000B5AB0000D9
:1045E0000D30094008000940181300502DE9F04F24
:1045F0006C4CE2680746880FADF1140DC0F0C28024
:104600005068406808B18047E26851685F4E88682A
:1046100008B9CD687DB13568002DFCD0002232602C
:1046200010B18047E0684168C86800B180475E48C3
:10463000503808F00FF94FF00008C6F800805448D1
:1046400046F81C0C534809F0BDFA40F60A09A4F8D4
:1046500034906379A4F83680BD6894F84000C3466E
:1046600004F1340A00F0F00084F84000012BC4F893
:1046700038B094F84100A5F8028000F0F00040F056
:10468000010084F8410001D17B7C93B1B8680088B7
:10469000A9F10801814205D0298B4FF60F4008404F
:1046A000288304E0298A4FF60F400840288287F8C3
:1046B00011803948016883680193C368406B009199
:1046C0001022694620F0784040F080500390334833
:1046D000029303F0A5F9494600E01D466B6813B14B
:1046E00018888142F9D1C5F804A0687B00F0F00079
:1046F000687304F1200009F00FFC80680088A9F1BC
:104700000701814220D0491C81421DD03B8CEBB176
:1047100097F82C0097F82D30C7F824B000F0F0007F
:1047200087F82C0003F0F00040F0010087F82D001E
:1047300007F12002A2639AF80D00A7F8228000F08A
:10474000F0008AF80D0001E0C4F8148030680028F9
:10475000FCD0C6F80080012008F0A8FC012808D091
:10476000687B00F0F00040F0010068730C4809F02D
:1047700029FAB9680A8A4FF6FF3010400882B868F3
:1047800046F81C0C05B0BDE8F08FC0461C10044074
:1047900001010E04593500004C130050180000218F
:1047A0001D98000048150020510007062DE9FE4F16
:1047B00083460D46DBF80800DBF8044000902868CB
:1047C000002800F0C08009F069FAD4F8881021B1FF
:1047D00009F082FB03202874B5E001212974C4F894
:1047E000885009F079FB6F6809F058FA064694F88A
:1047F000D80060B917F0704F03D117B1042007F04B
:1048000057FC022007F054FC012084F8D800304601
:1048100009F062FB0098D0F800A0DAF8040040F03C
:104820000200CAF80400DBF80460DBF80830D5F8B1
:1048300000C01F6896F88C101FFA8CF0B7F1804FFB
:1048400000FA01F080B2019014BF404F404F414840
:10485000A96849B996F88C104FEA810900EB090163
:104860008A6906F1A6010AE096F88C20DDF804E0DA
:104870004FEA820900EB090212697144491EBA60CD
:1048800080467960186800F1080EC7F800E0B96842
:104890004FEA0C1243F6F07CA2F110000CEA000083
:1048A0000143B9601A68B2F1804F14BF2A492B49FD
:1048B0006F68B7B9D88908EB0907A6F8A600B869E8
:1048C00006F1A6028860009F0A60D7F800A01A6867
:1048D0002F6802F1080E3D01103D674607EA05000A
:1048E00007E008EB0905AD688D60019DED196D1EAF
:1048F0000D60C1F804E08D6828438860D6F8A07088
:10490000586919690843796809688862506A40F0F3
:1049100003005062DAF8140040F00100CAF81400F5
:10492000207830B9616804F16C05284602F05AF924
:1049300010B10120BDE8FE8F584601F0F1FA28467B
:10494000002102F04FF90020BDE8FE8F0005002095
:104950003004002024E20000100500204004002064
:104960002DE9F04FADF1140D4A78664D03900878AB
:1049700000EB0220ADF800006A88BDF8000090420C
:1049800040F0B080BDF80000AA79000100EB0230D1
:104990008A1C102104F0BCF86888AB88401C81B2E6
:1049A00069808B4240F09A805748801C01884FF6FE
:1049B000FF7702918F4200F08780E8880F1C00F09B
:1049C00083805FFA93F2190187180024C6B25FFA58
:1049D00087FA01F470430494B245A1EB03011FFA76
:1049E00081FB28DBAAEB060101F10108B0420CBFF4
:1049F00004240024B245D8BFA34516DD04EB0630DD
:104A000004210DF1020205F0C7FB04270DF1020994
:104A100019F8011B049807F093FB7F1E0490F7D14F
:104A2000241DA4B2B4F5805FE4DBE888761CB8F1FD
:104A30000108F6B2DAD10498002107F081FB0021C9
:104A400007F07EFB029981423ED12C4948800398B1
:104A5000002104F0E3FC2C4C217C012908D0022920
:104A600008BF042005D00020032908BF012000E072
:104A700002202A78012940EA020028700CBF4FF476
:104A8000F0264FF4F226304604F058FD1B4AFF2072
:104A900010216074304604F03BF8A87A2978401E53
:104AA000A872C0B2A0B9480805D3AB690399032026
:104AB00000229847297811F0060F09D0104908689C
:104AC00040F00040086003E00398012104F0A6FCD8
:104AD00000242C7008F080FE6C800CE0039804F039
:104AE00013FE08E000206880287008F075FE039827
:104AF000032104F093FC05B0BDE8F08F26260020CA
:104B00000400094044190020242600202DE9F84F14
:104B1000994692468B46064609F0C0F8604C0090D4
:104B2000B4F93210B4F930000AAF401A40F6F87107
:104B30000140082980F29E80B4F9300004F5947594
:104B4000401C6FF31F3020860820B4F93080EB7FC3
:104B500033F07F0304D0401E05F12005F7D1002576
:104B600006F1700008F00AFAC5F808B085F81EA032
:104B7000C5F80490A5F81C804A48EE6097E80C0040
:104B8000202100271940104005F1100383E803009D
:104B900004F12000EF770368002B5ED1294606F070
:104BA000FBFF00285FD0A6F8B880E87F40F08000C7
:104BB000E87796F8BA00012804BF86F8BA70A771A2
:104BC000607A40B1607830B10120A0726772A7713D
:104BD0002079401C2071009809F07EF9606A002855
:104BE0005BD16078002834D1E079012855D009F0F4
:104BF00055F80646207A40BBA86806F01FFC2B49F2
:104C0000294AE36809681060B0B1DD681068401B8C
:104C1000B0FBF1F0012898BF012104D9DB681068CE
:104C2000C01AB0FBF1F19834204609F099F92046FA
:104C300008F0B3FD30462EE0304609F04DF904F19E
:104C4000BC00042108F042FD27E01949012008704A
:104C5000F0E7192008F0D8FE1FE004F120002946F3
:104C600006F09AFF48B9B4F9300000F6FF706FF310
:104C70001F3020866FF001080CE0A6F8B880E87FAE
:104C800040F08000E87796F8BA00012804BF86F863
:104C9000BA70A771009809F01FF94046BDE8F88F77
:104CA00048150020F1EFFF9F2836002084EA00001D
:104CB000243600202DE9FC415E4C574D574EDFF85D
:104CC00060815A4F94F8E410481E0B2861D8DFE841
:104CD00000F07B2C43062343062343067664042915
:104CE00007D001220A2945F8212C14BF02200320F5
:104CF00004E02021012045F8211C024684F8E2004E
:104D0000002045F8390C0827C5F8FF7FC5F8F37F68
:104D100045F8392CBDE8FC81052914BF092006207F
:104D2000002584F8E400356070E094F8E17001201B
:104D3000383D002FC5F81B0004BF0620002102D01B
:104D40000021F160032084F8E400032045F8010C01
:104D500031603068800859D294F8E40001250328B6
:104D60000DD00021404660220523009105F0DEFDB4
:104D700094F8E400062814BF0A200720D1E7022097
:104D80000090002160220523404605F0CFFD04205D
:104D9000C7E709F0FDF8BDE8FC812249002622485A
:104DA0000E60012505600E2001F0AAFC022007F02C
:104DB00067F984F8E45084F8E360BDE8FC810020E2
:104DC00038600C2578601FE01948006800680146CB
:104DD000202088472C3D41F61D560F2000214FF41E
:104DE000C072072345F8010C4046C5F80360022550
:104DF000009505F09BFD404600214FF4C07207234B
:104E000006F0D2F80120386084F8E45004F178000C
:104E100008F0C3FCBDE8FC8139400C4038600C4010
:104E200000A00C402C500C4004800C4034600C401E
:104E3000A0010010641A00202DE9F8435C4C04F135
:104E4000200009F069F815460E46009008F026FF8C
:104E500005F001078146B6F1FF3F0CD1606A20B929
:104E6000B4F93200401C06B202E0606AB0F91C607E
:104E7000002084F85F00304607F000FC032600287D
:104E800000F08A80616ADFF81C81814258D0009F5F
:104E9000B8422ED03FB100990A68904209D0096803
:104EA00000290091F7D1832E41D0484609F014F82B
:104EB0003DE004F1980008F061F800980168AA0844
:104EC00002D20A680260084600220260009100983F
:104ED00018B9484609F000F828E0C17F41F0040104
:104EE000C177684608F00EFB0146404606F054FEC6
:104EF000EDE704F1980008F041F8A8083ABF206AED
:104F0000006800202062484608F0E6FF0099C87F4C
:104F100040F00400C877684608F0F4FA01464046BD
:104F200006F03AFE009808B1A808EFD28326E0798F
:104F3000012834D004F1BC00022108F0C7FB2EE0A8
:104F4000A90803D3216A009100262662C27F0121AD
:104F5000B9401143C17708F07FFD0446002F14BF0C
:104F60001148124807F076FC484608F0B5FFA8083B
:104F700001D3009820B9204606F0F8FE83260EE003
:104F8000C17F41F00401C177684608F0BBFA0146D1
:104F9000404606F001FEECE7484608F09DFF30462B
:104FA000BDE8F8837415002001000204010001042B
:104FB00048150020B0B5456884684F48297BADF19D
:104FC000180D012916D0217E627E4C4B2F7E0143A5
:104FD000009143EA02010191494937F0010718BFE6
:104FE000081CA27E1043029095F88D000322FF2832
:104FF00011D00DE0677E217E3843A37E019041F001
:105000000041009143F000403E49029095F88D0028
:10501000014304220391FE204DF82200694605F168
:10502000900002F097FDC5F89C00002808BF002002
:105030005FD0287B344951F8200001282BD020680C
:10504000B0F1804F14BF22220A22217ED5F89C00A5
:1050500007F0BCFA2068B0F1804F14BF212209226A
:10506000617ED5F89C0007F0B1FA2068B0F1804F5E
:1050700014BF24220C22A17ED5F89C0007F0A6FACA
:1050800095F88D10FF2933D02068B0F1804F14BF00
:1050900023220B2228E02068B0F1804F14BF212288
:1050A0000922217ED5F89C0007F090FA2068B0F123
:1050B000804F14BF22220A22617ED5F89C0007F09F
:1050C00085FA2068B0F1804F14BF24220C22A17E03
:1050D000D5F89C0007F07AFA2068B0F1804F14BF31
:1050E00023220B2295F88D10D5F89C0007F06EFA5C
:1050F000012006B0B0BDC046000480A00040008082
:105100000004C0A00020008024E200002DE9F04F40
:1051100004466568A6680F46ADF1440D08F0BEFD73
:1051200095F8DC10012903D108F0D6FE002088E0B4
:105130004FF0010B85F8DCB008F0CEFEF868D4F82B
:1051400004A028B9A06890F8149090F8158003E0A6
:1051500090F8009090F80180B9F1FF0FE6D0B8F117
:10516000FF0FE3D0384941EA09000D90FE230F9369
:1051700041EA08010AF198000E910DA902F0EAFC3B
:105180000028CAF8A400D1D049460D2207F01EFA23
:10519000DAF8A40041460E2207F018FA3878287091
:1051A00078686860387A002130220823E86001A816
:1051B00008F06EFD0694307B00270990234A009783
:1051C000B16801AB05F1100006F0ECF901A8282246
:1051D0000823394608F09EFD05941D49306901AA4F
:1051E0003B46079005F12C0006F014FB01A8242291
:1051F0000823394608F088FD8DF81CB005F16000E1
:10520000594601AA07F05CF8287838B905F17C0006
:10521000394601AA07F054F80E486860C5F8BC701A
:105220002F72C5F8C070706801F03EFB204605F093
:10523000B9F9094A05F1C8000421234607F032FBF9
:10524000204611B0BDE8F08F002000843D590000D9
:10525000019E0000EFDD0000B9D90000F8B5414C17
:10526000201D0368B3F1FF3F08BF002305F03AFBA0
:10527000002876D13C4E20683468070F04F0FF0404
:10528000802C28BF002405F02DFB4FF0FF3578B1AE
:10529000401E07D0401E012802D9801E13D014E002
:1052A0008FB112E0381C5CD0801E0ED114340BE09C
:1052B0003846401E55D0801E53D0001F51D0401E8E
:1052C00003D1163400E00A3465B2162D49DB2748B5
:1052D0002749002501270560264E0F60264C3760C0
:1052E00020680028FCD1274A161D2449244F306825
:1052F00020F0030001433868C0080CD2106810F099
:10530000030F0AD041F003003060106800F0030082
:105310000328FAD101E041F001011B483160006827
:1053200020B11A4800681846FDF7EEFE18481949E2
:105330000560194F0A686FF35B4247EA0200086094
:1053400016490868C0F30130012806D10A681448DC
:10535000104040F400320A60086020680028FCD148
:10536000F8BDFEE718130050A010005084046042FE
:105370005C600C40082204430C00684204000020DA
:10538000B03F00500040034080012843000120430B
:105390008C210840482003400000390104000940E6
:1053A000FFFFFCFC2DE9F04304466568A7680E4644
:1053B000ADF1340D08F072FC95F8D910012903D134
:1053C00008F08AFD002084E04FF0010985F8D990AB
:1053D00008F082FD4FF00008C5F888803069286128
:1053E00070696861307E2876307B28733078287049
:1053F000706885F8A480686070694146092828BFF4
:10540000494685F88C10387B01F04EFA204604F0AE
:10541000C7FBF87E85F88D002046FFF7CBFD50B91D
:10542000387B01F06DF908F039FC85F8D98008F077
:1054300053FD44464CE001A841463022082308F0C1
:1054400027FC06947879CDF80080234A09903979B1
:1054500001AB05F11C0006F0A5F801A84146282281
:10546000082308F057FC05941C49B86801AA434674
:10547000079005F1380006F0CDF9287878B901A831
:1054800041462422082308F03FFC8DF81C9005F1CA
:105490006C00414601AA06F013FF114800E0B06815
:1054A000A86003F0BBFCC5F8A000287B012808D148
:1054B000D5F89C000B4908F0DCFCD5F89C0000B145
:1054C0008460094A05F1C4000421234607F0EAF983
:1054D00020460DB0BDE8F0830577000047A100002D
:1054E000FFDD0000F186000079DC00002DE9F04FBF
:1054F0000C464549CA7AADF12C0D84460592487B8D
:1055000009900D7900958A7A488B4B8A0E7B91F829
:1055100005A091F802800492B1F846E008904A7A1A
:10552000088B0392CD7807900A7AC88A02920F6A94
:105530000690CA79888A01928A79E146A9F540796C
:10554000B9F11D0F10D8DFE809F05B5553514F4DED
:105550004B494643413F3C3A380F34312E2B2923E7
:10556000201E1C0F19181716BCF1280F49DA6046C7
:1055700005F01AFE21E0099EB246D046CDF814800F
:105580001DE00898079007980690DDF818E005E000
:105590003831086820608888A08032E070460AE0D0
:1055A000B1F8440009E0B1F8420004E0B1F840006D
:1055B00001E091F83E00034612E0208021E00598CA
:1055C00004900498039001E03231E2E703980290DE
:1055D0000298009006E0019A87310DE068310BE0F7
:1055E0001846EAE7009D0BE02C31D2E7276008E07F
:1055F000583100E048311022204602F011FA00E054
:1056000025700BB0BDE8F08F6C0900202DE9F0414A
:10561000444C94F8E700ADF1280D00286FD1394FC4
:10562000387B01250021242284F8E7507E6884F825
:10563000E6000823C4F80C6101A808F04DFB002621
:1056400004F10C00069601ABADF814602E490796E4
:10565000324606F057FB2D4904F1300001AB3246CB
:1056600006F050FB2A4904F1540001AB324606F023
:1056700049FBB868014628468847DFF89C802548E2
:105680007B7B0078D8F80410C1F381571BB1032F3E
:1056900003D184F8E150032F16D0022F14D0012F2C
:1056A00026D103201D4C009031464FF040521C2360
:1056B000204605F03BF9009531464FF4007209236E
:1056C000204605F033F913E0022006F0F1FC032F29
:1056D0000CBF4FF47A7142F21071114800685434D3
:1056E000B1FBF0F1204608F03BFC204608F055F8ED
:1056F000D8F80000C00802D2304606F0D9FC0AB043
:10570000BDE8F081B4E8000057880000417E000049
:105710000185000039360020B03F005000A00C4049
:1057200084EA0000641A0020F8B507F0C7FE3F4E77
:105730003D4F0446A00822D3796A01B33D460020BC
:1057400068628A69086906F108032040104340F046
:10575000020088610A6918689043186001F110001E
:1057600090E80C0030681A1C9043306005F12C0062
:1057700006F012FA022105F1BC0007F0A7FF786AD3
:10578000A10814D200F110020CCA002122400B40E3
:1057900008BF002A0BD0016985690C40B8622C4310
:1057A0004FF48041846107F1BC0007F08FFF786AF5
:1057B000002837D107F12004204608F0ADFB051C76
:1057C00030D0F868E968884226D1A86805F036FE2E
:1057D00017490860E0B906F1080128690A68104312
:1057E0000860326805F1100393E80300081C1043B9
:1057F000306000233361A86846F80C0C06F11000F5
:1058000000680028FAD0204607F07CFE7D62F8BDD3
:10581000086803F0D9FBF8BD07F1BC004FF48051D4
:1058200007F054FFF8BDC046481500200C10044096
:10583000283600202DE9F0430746ADF11C0D08F095
:105840007BFA06F0BDFB4FF000090646CDF80C9040
:1058500008F018FA30F0010002D00398B04202D1EB
:105860006FF0040066E078684C4658B1B0F1FF3F35
:1058700005D004A906F08CFB30B1804659E04FF00A
:10588000FF3000E02046049007F068FB049D4FF0D5
:1058900001082D1802E00A463BE004937068049961
:1058A00001F0A0F900282DD0684604F0D3FAD8B949
:1058B0009DF8040005A906F06BF888B9BB68BDF82F
:1058C00014009DF80610029A984748B1BDF81400DC
:1058D0009DF80650B881029BBD73C8463B6111E03C
:1058E000029903A806F030FE0498641CB0F1FF3F53
:1058F000D4D00028D2D007F031FB2B1A02D0049864
:105900009842CAD2039F07F012FD06F1080547B17D
:105910003A4652F80C1C0029BDD1296842F80C1CEB
:105920002F6007F00EFF24B1706803F0B3FC641E13
:10593000FAD1404607B0BDE8F0837047B0B53C49A6
:10594000446809688068496800688847394A0123C3
:1059500002F114052B6050B1217AFF2907D0FF21F5
:10596000400921725FD2042045F8180C40E0207AEB
:10597000002858D03049401E18D0401E02D0FD38B3
:1059800051D04DE01568D4F8B4000570D4F8B400D7
:10599000401CC4F8B400D4F8B8707F1EC4F8B870C6
:1059A00022D0012F39D90922022019E0D4F8B07091
:1059B0007F1EC4F8B0701DD1D4F8B870A7B1022012
:1059C000D4F8A83020721B7C083A012F4FEA430319
:1059D00043F0010313609CBF0321516001D90B22E6
:1059E0000A6008F043FAB0BD0020207204230B6067
:1059F0000220F6E7D4F8AC0000781060D4F8AC00D0
:105A0000022F00F10100C4F8AC00F0D2D4F8B87055
:105A1000002FECD100202072052342F8043CE7E778
:105A2000FF202072B0BD04F12C0005F0F5F9B0BDE7
:105A3000AC01001008280040042800402DE9F04384
:105A4000ADF1140D00F0AEFC041C69D04FF48020C1
:105A500010216A4604F0A0FB041C5BD00098324E73
:105A6000410F01D0864200D2002430490198314DC7
:105A7000814204D829465639814202D249E0000BBE
:105A800047D1002C46D02A4810216A4604F084FBF6
:105A9000041C3FD00098410F01D0864200D2002460
:105AA0000198010B35D02946814232D394B3224C60
:105AB000002604F110093546C84605F580204FF44C
:105AC00080714A4604F068FB4FF4807718F8011B98
:105AD000304606F04DFB7F1E0646F7D105F5807572
:105AE000A8F58078680CE8D03046002106F040FB2D
:105AF000002106F03DFB0546224610214FF4F4201C
:105B000004F04AFB20880027A84208BF01273C4632
:105B100004E000244FF4F42003F010FD04F046F9F3
:105B2000204605B0BDE8F0830050002001F00100E0
:105B300010100400FFFF0100983200202DE9F04F03
:105B40000820ADF1140DADF800000120ADF8020001
:105B5000684606F005FA334C9DF804002070029860
:105B60004FF0FF31606004F10C0001F0BBFE3148E2
:105B700007682E4D2C48B0FBF7F104912C494FF4E7
